{
  "_format": "hh-sol-artifact-1",
  "contractName": "SecureStorage",
  "sourceName": "contracts/SecureStorage.sol",
  "abi": [
    {
      "anonymous": false,
      "inputs": [
        {
          "indexed": true,
          "internalType": "address",
          "name": "user",
          "type": "address"
        },
        {
          "indexed": false,
          "internalType": "string",
          "name": "hash",
          "type": "string"
        }
      ],
      "name": "DocumentStored",
      "type": "event"
    },
    {
      "inputs": [
        {
          "internalType": "string",
          "name": "_hash",
          "type": "string"
        }
      ],
      "name": "storeDocument",
      "outputs": [],
      "stateMutability": "nonpayable",
      "type": "function"
    },
    {
      "inputs": [
        {
          "internalType": "string",
          "name": "_hash",
          "type": "string"
        }
      ],
      "name": "verifyDocument",
      "outputs": [
        {
          "internalType": "bool",
          "name": "",
          "type": "bool"
        }
      ],
      "stateMutability": "view",
      "type": "function"
    }
  ],
  "bytecode": "0x608060405234801561001057600080fd5b50610865806100206000396000f3fe608060405234801561001057600080fd5b50600436106100365760003560e01c8063b644f3501461003b578063beee5eb714610057575b600080fd5b610055600480360381019061005091906103bb565b610087565b005b610071600480360381019061006c91906103bb565b610168565b60405161007e919061041f565b60405180910390f35b60008151116100cb576040517f08c379a00000000000000000000000000000000000000000000000000000000081526004016100c290610497565b60405180910390fd5b806000803373ffffffffffffffffffffffffffffffffffffffff1673ffffffffffffffffffffffffffffffffffffffff168152602001908152602001600020908161011691906106d8565b503373ffffffffffffffffffffffffffffffffffffffff167f92fd2035a62889716b60f996fe696b401ef46811da665cfce0d76b84deacea228260405161015d919061080d565b60405180910390a250565b6000806000803373ffffffffffffffffffffffffffffffffffffffff1673ffffffffffffffffffffffffffffffffffffffff16815260200190815260200160002080546101b4906104f1565b80601f01602080910402602001604051908101604052809291908181526020018280546101e0906104f1565b801561022d5780601f106102025761010080835404028352916020019161022d565b820191906000526020600020905b81548152906001019060200180831161021057829003601f168201915b50505050509050600081510361024757600091505061025c565b82805190602001208180519060200120149150505b919050565b6000604051905090565b600080fd5b600080fd5b600080fd5b600080fd5b6000601f19601f8301169050919050565b7f4e487b7100000000000000000000000000000000000000000000000000000000600052604160045260246000fd5b6102c88261027f565b810181811067ffffffffffffffff821117156102e7576102e6610290565b5b80604052505050565b60006102fa610261565b905061030682826102bf565b919050565b600067ffffffffffffffff82111561032657610325610290565b5b61032f8261027f565b9050602081019050919050565b82818337600083830152505050565b600061035e6103598461030b565b6102f0565b90508281526020810184848401111561037a5761037961027a565b5b61038584828561033c565b509392505050565b600082601f8301126103a2576103a1610275565b5b81356103b284826020860161034b565b91505092915050565b6000602082840312156103d1576103d061026b565b5b600082013567ffffffffffffffff8111156103ef576103ee610270565b5b6103fb8482850161038d565b91505092915050565b60008115159050919050565b61041981610404565b82525050565b60006020820190506104346000830184610410565b92915050565b600082825260208201905092915050565b7f486173682063616e6e6f7420626520656d707479000000000000000000000000600082015250565b600061048160148361043a565b915061048c8261044b565b602082019050919050565b600060208201905081810360008301526104b081610474565b9050919050565b600081519050919050565b7f4e487b7100000000000000000000000000000000000000000000000000000000600052602260045260246000fd5b6000600282049050600182168061050957607f821691505b60208210810361051c5761051b6104c2565b5b50919050565b60008190508160005260206000209050919050565b60006020601f8301049050919050565b600082821b905092915050565b6000600883026105847fffffffffffffffffffffffffffffffffffffffffffffffffffffffffffffffff82610547565b61058e8683610547565b95508019841693508086168417925050509392505050565b6000819050919050565b6000819050919050565b60006105d56105d06105cb846105a6565b6105b0565b6105a6565b9050919050565b6000819050919050565b6105ef836105ba565b6106036105fb826105dc565b848454610554565b825550505050565b600090565b61061861060b565b6106238184846105e6565b505050565b5b818110156106475761063c600082610610565b600181019050610629565b5050565b601f82111561068c5761065d81610522565b61066684610537565b81016020851015610675578190505b61068961068185610537565b830182610628565b50505b505050565b600082821c905092915050565b60006106af60001984600802610691565b1980831691505092915050565b60006106c8838361069e565b9150826002028217905092915050565b6106e1826104b7565b67ffffffffffffffff8111156106fa576106f9610290565b5b61070482546104f1565b61070f82828561064b565b600060209050601f8311600181146107425760008415610730578287015190505b61073a85826106bc565b8655506107a2565b601f19841661075086610522565b60005b8281101561077857848901518255600182019150602085019450602081019050610753565b868310156107955784890151610791601f89168261069e565b8355505b6001600288020188555050505b505050505050565b60005b838110156107c85780820151818401526020810190506107ad565b60008484015250505050565b60006107df826104b7565b6107e9818561043a565b93506107f98185602086016107aa565b6108028161027f565b840191505092915050565b6000602082019050818103600083015261082781846107d4565b90509291505056fea2646970667358221220b6154482e85014da73d5ca7adaa25491f707dd32be7e9003b69cd1cf73466b9164736f6c63430008180033",
  "linkReferences": {},
  "deployedLinkReferences": {}
}